:020000040800F2
:100000004013002441080008110500082D080008CD
:100010002D0800082D0800082D0800080000000029
:1000200000000000000000000000000001090008BE
:100030002D08000800000000A1080008992400080D
:10004000790A0008790A0008790A0008790A000884
:10005000790A0008790A0008790A0008790A000874
:10006000790A0008790A0008790A0008790A000864
:10007000790A0008790A0008790A0008790A000854
:100298002DE9F04395B01022002109A804F02EFDA5
:1002A800032205AE1146304604F05BFC4B4D284650
:1002B80004F00CFC18B94A4803F0F1FC08E0AB68FC
:1002C80028465B689847014630B1464803F0E7FC8A
:1002D800002015B0BDE8F083012210A804F041FC0D
:1002E800414C204604F0F2FB08B94048E4E7D4F852
:1002F80010800D21A7684FF48032D8F800302046CE
:1003080023F40053C8F800303B689847014608B109
:100318003748DBE7D7F81890B9F1000F11D0D8F8B3
:1003280000300D214FF0A072204613F4005F14BF77
:100338004FF000734FF08063C847014620B12D4845
:10034800C4E76FF05701FAE72B4B0E934FF40053B5
:100358000F93FB691BB101220DA9204698479DF810
:1003680029301022254C03F00101C3F38000C3F3A8
:100378004003099200290390214814BF0821032152
:1003880000912049CDE901231F4A1ABF1D230A46BF
:100398000B232968114D03F082FC1C491C4803F00B
:1003A8007EFC4FF47A720023304602F009FC60B9F3
:1003B800002209A900232846CDE9004600F0DAFD0D
:1003C800014610B1134803F06AFC0022002310A86C
:1003D80002F0F6FB0028E4D10F486DE770500008E2
:1003E800A0580008B5580008F04F0008DC5800086D
:1003F800F55800081F590008D93A0008D33A0008F0
:100408004E5900088E58000897580008905900085F
:1004180095590008B2590008D8590008014B1B68C3
:10042800184700BF00000024014B1860704700BF48
:100438000000002430B585B004460D461022002186
:10044800684604F05BFC02232A4621468DF80230F8
:100458006846034B019303F0DBF805B030BD00BFDD
:100468002504000880B505460E461746984602F052
:100478002FFEDFF82090034604F0ACFC0446424609
:1004880049F8003039463046A84754F8090000F0CA
:10049800EDF900BF08000000054B00205A6822F063
:1004A80002025A605A6822F001025A60704700BF7F
:1004B8000010005C0C4B0D4A1A600D4AD36823F0FB
:1004C800070343F00203D3600A4B1A6841F203039F
:1004D800B3EB124F06D1084AD2F8083143F00103B2
:1004E800C2F80831704700BF280000240090D003EC
:1004F800004802580010005C00800051014B036066
:10050800012070472C56000808B5034B1B68984714
:10051800BDE8084000F026B80400002430BFFFF70B
:10052800FDBF00BF2DE9F0410B4E0546DFF82C80DA
:10053800324606EB0807CC1B0949204604F0D0FBDD
:10054800A019083C4246002104F0D8FB07F1080036
:100558002C67BDE8F08100BF000000000400000027
:10056800E8550008054B5A699B689A4204D0044A2A
:10057800536843F080535360704700BF3005002430
:1005880000ED00E0264B70B515469A6A064612F053
:10059800100F9A6A14BF1124102412F0080F9A6AD7
:1005A80018BF122492070AD5586B9A6A140634D5D4
:1005B80019B19A6A22F080029A62132401E06FF05E
:1005C8001500174B9A6A12F0010F9A6A18BF142483
:1005D80012F0200F9A6A18BF1524D20602D49B6A1B
:1005E8009B070AD50E4B5B68190506D5314600F006
:1005F800F9F910B180F309880224094B9A6A920626
:1006080003D55A6A22F400525A629A6A204642F086
:10061800FF029A6200232B7070BD6FF01500CCE7C3
:1006280000ED00E0134B9A6A12F0007F9A6A14BF3B
:100638001E201D2012F0807F9A6A18BF1F2012F416
:10064800002F9A6A18BF212012F4802F9A6A18BFC7
:10065800222012F4003F9A6A18BF232012F4803F28
:100668009A6A6FEA024218BF24206FEA12429A621D
:10067800704700BF00ED00E0194B024610B5986ABC
:100688009C6A10F4805F14BF1720162014F4006FC2
:100698009C6A18BF1820A40509D5986B986A0004AD
:1006A80004D51AB19A6A22F400429A6219200C4BB6
:1006B8009A6A12F4806F9A6A18BF1A20D2050CD46D
:1006C8009B6A13F4005F18BF1C20054A936A43F421
:1006D8007F43936200230B7010BD1B20F5E700BF1A
:1006E80000ED00E0484BF0B55B688BB00446002590
:1006F800C3F3080385F31188BFF36F8F02F07F40BF
:10070800B0F17F4F11D102F00C0008280DD010076E
:100718004CBF0C4601250022033B8DF80720032B14
:1007280005D8DFE803F0256468612C46F3E7002369
:100738009DF80720D2B902AE04F1200720680834DA
:1007480054F8041C3246BC4203C21646F6D1099A34
:10075800002D54D0C2F3080121B96FEA52226FEA82
:100768004222099202A9184603F0A7FA0BB0F0BD7D
:10077800254BDA6A9107DAD4DA6A002AD7DBDA6A13
:100788005200D4D55A69A16942F480725A61BFF304
:100798004F8FBFF36F8F5A6931F8021C22F48072B1
:1007A8005A61BFF34F8FBFF36F8F4DF602729142BC
:1007B8000AD09A6AD2B24AB10DF107020121204645
:1007C800FFF7E0FE0346B3E72368B1E79A6A12F43D
:1007D8007F4F05D00DF107010120FFF74DFFF1E72D
:1007E8009B6AB3F5803FA2D3FFF71CFFEAE70DF140
:1007F80007020021E3E70DF107010020EDE722F4ED
:10080800FF7222F00102ACE700ED00E0044B5A69E8
:1008180042F010025A615A6922F008025A61704780
:1008280000ED00E0EFF30880EFF3098101B57246AF
:10083800FFF758FF01BD00BF0A4880F30888102061
:1008480080F3118808484FF40461401880F3098840
:10085800EFF314800221084380F31488BFF36F8FED
:1008680000F08EF84013002480050024084B9B6894
:1008780083420BD1EFF3058343B1064B5A6842F02C
:1008880080525A605A6A22F400425A6202F026BC28
:100898003005002400ED00E014498A684FF030006C
:1008A8001044EFF3098C80E8F01F102080F31288C1
:1008B800BFF36F8F0E4F4FF000664A698A603E6043
:1008C800106F0C4C2060506F0023536780F3118821
:1008D80004B5104600F0EAF8BDE8044002F1300023
:1008E80090E8F01F8CF30988704700003005002459
:1008F80004ED00E0280200241EF0040F0CBFEFF303
:100908000880EFF30980816911F8021C0229FFD0E1
:1009180001B5724603F0D7F901BD00BF00B2002847
:1009280007DB0123410900F01F00024A834042F817
:100938002130704700E100E000B2013100284FEAA1
:100948000111C9B206DB00F1604000F5614080F892
:100958000013704700F00F00014B1954704700BF97
:1009680014ED00E0044B054A23F07F039360BFF3C6
:100978004F8FBFF36F8F70470000000800ED00E055
:1009880008B5FFF7EFFF0B4AD2F8883023F470035D
:10099800C2F88830EFF3148323F0040383F3148838
:1009A800BFF36F8F01F05EFF02F0BAFC00F054F85D
:1009B80001F0A6FF00ED00E042F8203C203A009B41
:1009C80007495360019B21F001019360029B9161EB
:1009D800D3604FF08073D36100230265436770478B
:1009E8006D040008094A0346906870B113F1160FA8
:1009F800006E05D0A0F140029A4205D8834203D286
:100A0800814228BF0020704700207047300500242D
:100A180015460A4A0E4608B5094B9060026F1A60DF
:100A280000F044F82C4686F309880020054B9847C7
:100A38002046002100220023034C204730050024D3
:100A480028020024DF3C00086D040008014B102236
:100A58001A61704700ED00E0002304481021C21815
:100A68000133962B82F80013F9D1704700E100E0BA
:100A780008B5EFF30583064A103B02EBC30152F8B1
:100A8800330049688847BDE80840FFF76BBD00BFE1
:100A980090500008024B0121024A034800F076B842
:100AA80000000824000000243C560008026E402183
:100AB800044B403A18461A60034AC3E9011201215F
:100AC80000F06EB82C02002400000B15084AC2F88A
:100AD80098000B6823F01F03034343F01003C2F888
:100AE8009C308B6843F00103C2F8A030704700BF08
:100AF80000ED00E02DE9F0430E4685B01F460446A0
:100B08004FF00009DFF85480B14523DA6068D8B1A6
:100B18003FB1411E08421BD11F2819D92368194229
:100B280016D12368019303F0EAF8A3680343D0B20F
:100B38000393D8F89050C5F30725013DA84207D87C
:100B480001A9FFF7C3FF421C09F101090C34DBE7D7
:100B58006FF01502104605B0BDE8F08300ED00E027
:100B6800044B0522C3F89420BFF34F8FBFF36F8F58
:100B7800704700BF00ED00E0BFF35F8F024B00221B
:100B8800C3F89420704700BF00ED00E010B5034C97
:100B980001232278FFF7AEFF207010BD6005002406
:100BA8000B4A08B500231278FFF7A4FF10F1160FBF
:100BB80007D0084A0021D2F89030C3F3072398429F
:100BC80000DB08BDC2F898000130C2F8A010F2E7B7
:100BD8006005002400ED00E0544B2DE9F043544C2F
:100BE80085B0D3F890302568C3F307239D4200F2FF
:100BF8009A8000200C26FFF7BFFF85421AD14D4C82
:100C080068464D4F2570FFF779FC00250646DFF84A
:100C18001C81DFF82891AE4213D123780020434984
:100C2800D1F89020C2F30722934276DB0020FFF729
:100C380097FF42E0616806FB0011FFF747FF0130AC
:100C4800DBE700984FEA051C00EB0511CB683B4039
:100C5800B3F5000F48D00AD8B3F5001F30D0B3F56C
:100C6800800F36D0B3F5801F10D00135D3E7B3F12C
:100C7800807F42D0B3F1007FF7D150F80C308868FC
:100C880003F03DF84A6840F4802009E050F80C3041
:100C9800886803F034F840F088504A6840F43020FF
:100CA80003902078CDE90123D8F89030C3F30723C7
:100CB800013B98422AD96FF0150005B0BDE8F083D2
:100CC80050F80C30886803F01AF84A6840EA0900BE
:100CD800E6E750F80C30886803F011F840F0C0607F
:100CE8004A6840F40030DBE750F80C30886803F0BD
:100CF80006F84A6840F08270D2E750F80C308868ED
:100D080002F0FDFF4A6840F08870C9E701A9FFF7C3
:100D1800DDFE237801332370A7E7C1F8983001334B
:100D2800C1F8A0007CE74FF0FF30C6E700ED00E017
:100D3800E8550008600500240000F0FF00000811D5
:100D480008B5024B1B689847002008BD38020024EC
:100D5800034B044A1860937843F00203937070477A
:100D680038020024080000240649074821F007013A
:100D7800C1F1105208B502F5002202F036FF00203A
:100D880008BD00BF871300243C0200242DE9F04170
:100D9800054600244FF001084FF0B0460E4F2A7860
:100DA8001319DBB208FA03F0D6F8883030EA0303E7
:100DB8000AD152FA84F3C6F8880057F833201AB1DA
:100DC80007EBC3035968904701346A78E3B29A4243
:100DD800E5D2BDE8F08100BF48020024044B03EBD4
:100DE80040000023013320F8022B9942FADC7047B7
:100DF8003400002407B5062201210020FFF7EEFF8A
:100E0800002206201146FFF797FD01210722084618
:100E1800FFF7E4FF002207201146FFF78DFD0822A7
:100E280001210220FFF7DAFF002208201146FFF710
:100E380083FD092201210320FFF7D0FF00220920AA
:100E48001146FFF779FD0A2201210420FFF7C6FFAA
:100E580000220A201146FFF76FFD052117220846D8
:100E6800FFF7BCFF002217201146FFF765FD282277
:100E780006210A20FFF7B2FF002228201146FFF7BB
:100E88005BFD0223F4220748CDE9002383681B6831
:100E980023B16946984703B05DF804FB6FF057002B
:100EA800F9E700BF904E0008034680B1B0FA80F21F
:100EB800C2F11F02D2B2074931F912004FF0B04215
:100EC800D2F880100B43C2F88030FFF727BDFF220D
:100ED800F1E700BF3400002430B5B0B1B0FA80F3B8
:100EE800C3F11F03DBB20B4850F833408C4204D1E6
:100EF80000EBC3056D68954205D044B940F833103E
:100F080000EBC3004260002030BDFF23EBE76FF029
:100F18000F00F9E74802002460B1B0FA80F3C3F18A
:100F28001F03DBB2044A002142F8331002EBC3026C
:100F380051607047FF23F5E74802002400F00302E0
:100F48000F23043292009340094A43EA900000F0CC
:100F58000303023352F82320030C93FAA3F3B3FAE2
:100F680083F302EA104003F01F03D840704700BF24
:100F7800000400582DE9F04389B00546914698468B
:100F8800DDF840C00C46876881B34E79D1F800E09F
:100F980016F0010F40F2FF7618BF6FF060463EEA88
:100FA800060623D1BCF1000F1AD103AE0122614617
:100FB800304603F0D6FD0F4B01964A460093214672
:100FC8007F6943462846B84738B94FF0FF324FF09B
:100FD800FF33304601F0F4FD079809B0BDE8F0830F
:100FE8007C69A44609B0BDE8F04360476FF015007E
:100FF800F3E700BFD73D00082DE9F04F0F4689B051
:1010080091461E46D0F808A06A4BD0F808809A424C
:1010180000F2CD80B8F83C40B8F83E3001341C44AA
:10102800B8F840301C44002A00F0C180B6F57A7F39
:1010380080F0BD80836807A99B6A9847002840F024
:10104800B3804EB95C4B994535D85C4B40F26B3652
:10105800994588BF4FF44876079B04FB09F4B3FB16
:10106800F4F40293BAF838309C4238BF1C466FF04B
:10107800004304FB09FB0393B8F842309C421DDD92
:101088000398FB88BA885B08934228BF13463B80C5
:10109800BAF83020934204D9B8F83A209A4228BFC7
:1010A8001A466FF000433A80984208BF6FF08500F7
:1010B80009B0BDE8F08F40F2EE26CDE7029BB3FB06
:1010C800FBF30193DDE901230BFB12335BBB0199B1
:1010D8004FF47A75BDF804207143B8F83C30B8F87D
:1010E8003EE005930EEB0300BAF834C0BAF832308C
:1010F80080B2B1FBF5F1511ABAF8365089B20495AD
:10110800A94213D9B8F840508D4228BF0D46511E48
:10111800491B89B288420BD2151AB8F84020013D04
:10112800ADB2AA420FD20134CB44A5E7049DEEE745
:101138000CEB030080B288422DD9121A013A95B2FD
:10114800049AAA42EFD8B3EB500F4FEA500203D2E9
:10115800059B934228BF1346C21A92B296451CD2E9
:10116800A0EB0E0372469BB24FF47A7100FB01109C
:101178000199B0FBF1F08642039934BF801B301A05
:101188008142D0D97B80BA80FD803C8100283FF421
:1011980078AF0390C7E70846D5E7944582BFA0EB30
:1011A8000C0362469BB2DFE76FF0040080E76FF044
:1011B80015007DE740420F0000350C0020A1070014
:1011C8002DE9F04F8BB00546174699464368102223
:1011D800884606A80021D3F818A003F08FFD03AABB
:1011E8003946284602F043FE002874D1DFF820B1C2
:1011F800039E73066FD0C6F30526082304AA284663
:1012080006EBC60108EBC10189B2019102F019FE93
:10121800002860D19DF816300199C3F3030003F04C
:101228000F028DF81C009DF8130010F0200F1EBF50
:101238009DF81D4044F002048DF81D409C0642BFF5
:101248009DF81D4044F004048DF81D40DB0642BFA4
:101258009DF81D3043F008038DF81D3004069DF8F5
:10126800174048BF9DF81D3004F07F0444BF43F089
:1012780010038DF81D3043061AD5049BC3F31C03D5
:1012880006939DF81D3043F001038DF81D301BF8BF
:101298000230082B2CD89DF81D2090070ED59DF8FC
:1012A8001D3022B2E400D90718D4DAF8043017E068
:1012B800BDF81230C3F38A030693E8E7002BEED09B
:1012C8000333083108AA284603F4FE7389B202F0F2
:1012D800B8FD0028E3D00BB0BDE8F08FDAF808308D
:1012E8001C4453F83230626813B106A9284698475F
:1012F80032464946284602F0BEFD0028EBD103AA33
:101308003946284602F0B3FD00283FF471AFE2E702
:101318006A5A00082DE9F341066905464FF0FF3285
:101328004FF0FF331036304602F09DFD01AA182118
:10133800284602F09CFD044648BB019A182128461D
:1013480022F01002019202F096FD0446F8B901F06D
:101358006BF901AA07461821284602F088FD0446C1
:10136800A8B9DFF84C80019B1B0710D501F05CF988
:10137800C01B404512D9019A1821284642F0100294
:10138800019202F078FD041E08BF6FF00A0430468F
:1013980002F06BFD204602B0BDE8F08101AA1821D9
:1013A800284602F064FD0028DDD00446EFE700BFC0
:1013B800006CDC0270B5046905460E4623792BBB28
:1013C80010344FF0FF324FF0FF33204602F04BFD50
:1013D800F38832882846013B3189013A03F07F03BC
:1013E800013943EA4263B288013A120202F47F42A9
:1013F8001343084A02EA01421C211A4302F03BFD4A
:101408000546204602F031FD284670BD6FF00F05F5
:10141800FAE700BF0000FF012DE9F04F89B0502125
:101428000446076904AA02F022FD002863D1554E3C
:10143800049A32405FD05021204602F01CFD00285B
:1014480059D1049B13F0607F36D0D4F8108005AAD8
:1014580063680DF10F012046D3F81890D8E902AB64
:1014680002F051FE40BB9DF80F50BAF1000F04D0B6
:101478005B46059A29462046D047032D1CD14FF0DC
:10148800FF32D421204602F0F6FC0546A0B9824678
:1014980008F1240899F80C309D422FD306AA182188
:1014A800204602F0E4FC38B9069A1821204622F0BA
:1014B8000102069202F0DFFC049BD8040DD5656892
:1014C800D4F81090D5F8188005AAF421204602F027
:1014D800CEFC10B9059A910627D1049B1B0403D5AD
:1014E80007F1240001F038FB04AA5021204602F03D
:1014F800BEFC00289CD009B0BDE8F08FD9F80030B8
:10150800EA0053F835B0BBF1000F0CD043F835A012
:101518006FF07101D9F80030204613445A68D84753
:10152800404601F019FB0135B4E7C2F3042A298FBC
:10153800082306AA01EBCA01204689B202F081FC01
:101548000028CAD15246F82120469DF81FB002F063
:1015580092FC82460028C0D1D8F800100FFA8BF010
:1015680001EBCB0351F830B05A6841F830A0019232
:1015780009F1240001F0F0FA019A51462046D847B3
:10158800A2E700BF0090823B2DE9F04F0D46097994
:10159800DFF8A8C114460F290A4687B0D0F804A07E
:1015A80028BF0F220746DAF818801CF8029000229C
:1015B80095F805C00669CCF3400EBCF1030F009303
:1015C800CDE904224FEA8C1202F0400242EA4E12A0
:1015D8008DF8132001F00F0262F07F028DF81620BB
:1015E80000F29C80B9F1080F00F29B80082900F2F4
:1015F80098803279002A00F0978003AA442102F0EB
:1016080036FC8346002859D1039A100600F18F80D2
:1016180006F1240301932246009B06F1240001F001
:10162800CFFA8346002840F0858034364FF0FF33E8
:101638004FF0FF32304602F016FC98F80C305B454C
:1016480040DC4FF0FF346B7938462A68D907BAF87E
:101658003A108DF817404BBF049BBDF8123062F367
:101668001C0362F38C0304AA4CBF0493ADF8123038
:1016780004EBC403DB009BB219440093082389B22E
:1016880002F0E6FB834600283BD16B799B0723D504
:10169800D8F80030D021109A384643F83420E200B8
:1016A800D8F800301344119A5A600122A24002F07F
:1016B800E2FB834660BB304602F0D7FB584607B0D2
:1016C800BDE8F08FD8F800205C4652F83B20002A8D
:1016D800B9D00BF1010BB2E7B9F1000FD8D0BAF8C5
:1016E8003A2009F1030300993846083203F4FE73DF
:1016F800114405F1080289B202F0AAFB83460028CA
:10170800C6D0304602F0B1FB019801F025FAD5E7C2
:10171800D8F80030002143F83410F2E76FF0850B59
:10172800CCE76FF0150BC9E76FF0720BC6E76FF0E7
:10173800710BC3E76FF00A0BC0E700BF6A5A0008D5
:101748002DE9F347884619685B689146254A05469E
:10175800C3F30A03066902EA0142D0F804A043F081
:1017680000431036DAF818700024134330464FF05F
:10177800FF3201934FF0FF3302F075FB7B7BA342EE
:1017880005DC304602F071FB6FF01B0026E07A683A
:1017980052F834200AB10134F1E704F001039DF84E
:1017A80007202846013363F3C50204238DF8072078
:1017B8000DEB0302BAF82E1001EB840189B202F096
:1017C80047FB58B9304602F050FB7B68204643F887
:1017D80034807B6803EBC403C3F8049002B0BDE80F
:1017E800F08700BF0000FF07F0B5002385B045680B
:1017F80004460669AF69ADF80C30CDE9013306F14E
:10180800100003F0A7F906F1340003F0A3F93A7BBE
:10181800114606F1240003F0A4F9286830B92046DF
:10182800FFF778FD50B16FF0040005E003F04EF9C2
:101838000028F4D16FF0120005B0F0BD4FF47A72B1
:101848000023204602F01BFB0028ECD1204602F0C2
:1018580040FD6A461821204602F009FB0028EBD11A
:10186800009A1821204622F46972009202F003FBC4
:101878000028E1D16A461021204602F0F8FA002833
:10188800DAD1009A1021204622F01002009202F0CC
:10189800F2FA0028D0D16A468021204602F0E7FA01
:1018A8000028C9D1009A8021204642F02B020092DC
:1018B80002F0E1FA0028BFD1EA682B8A01A9204684
:1018C800FFF79AFB1630AED001A9204602F083FA42
:1018D8000028AFD1134A54212046009202F0CBFAD7
:1018E8000028A9D1992258212046009202F0C3FA73
:1018F8000028A1D103225C212046009202F0BBFA05
:10190800002899D14FF0FF32E0212046009202F0E2
:10191800B2FA002890D10146EA6B204602F09FFAFD
:101928008AE700BF99908203034607480A46816800
:1019380010B4CC681CB11946234610BC18476FF088
:10194800570010BC704700BF904E00082DE9F743C0
:101958004368054601AA00211E6C306902F096FF13
:10196800041E14DB019B00221979186800F0FCFAA8
:10197800044660B96B681F6C4FF0FF330193DFF8C2
:10198800A490484603F0A2F828B96FF01204204644
:1019980003B0BDE8F0837B69B969012BD9F80880E9
:1019A80006D8D8F80030B969CBB96FF05704EEE71C
:1019B800D8F818300831002BF7D022464846984707
:1019C800041EE4DBB86901A90830FFF7ADFF04463F
:1019D8000028DCD1144B019A9A42E2D9D5E7114884
:1019E800984704460028D2D13B7F53B1284602F0DD
:1019F80070FC3B7F0D4ADB0303F4702343F0400384
:101A080053602846D6E9011202F0C0FC04460028BB
:101A1800BDD12846FFF7E8FE04460028B7D1F36891
:101A28009847B4E7904E00084059730700A8004053
:101A380037B543680C461D6C114803F047F8D8B118
:101A480001A9D5E90530012B88BF0830FFF76CFFE5
:101A580000280DDB0B4B019A5B6803F47023B3F588
:101A6800803F02D3DB0BB2FBF3F20020226001E0DF
:101A78006FF0040003B030BD6FF01200FAE700BF4A
:101A8800904E000800A80040044B05489B6A03F0EC
:101A98000303022B18BF0020704700BF0044025800
:101AA80000127A0008B50A4B1B6903F03803102BA3
:101AB80009D0182B09D1FFF7E7FFF0234008584356
:101AC8004008400808BD0348FBE70020F9E700BFCD
:101AD8000044025800127A00374B10B518680B887A
:101AE800C3F30B030D2B2BD813B96FF0850026E039
:101AF800013B0C2BF9D801A050F823F0751B000806
:101B0800391B00087B1B0008AD1B0008811B00085F
:101B1800F31A0008F31A0008851B0008851B000843
:101B2800851B0008911B00089B1B0008911B0008DF
:101B3800002010600B68B3F5805F35D2002010BD1F
:101B4800D42B0FD003F62873C3F30B031C2BCCD86C
:101B5800012404FA03F3194C234205D140F211146D
:101B68002342C2D04008E4E78008E2E7FFF79AFF83
:101B7800DFE74FF4FA40DCE71148DAE7FFF784FFC4
:101B8800F02340085843EDE7FFF77EFF78238008ED
:101B9800F8E7FFF779FF7823800858430323B0FB61
:101BA800F3F0C6E70748C4E7C3F313330133B0FBC8
:101BB800F3F01060C2E700BF2800002400101111E4
:101BC800006CDC0200127A00944B13B5D3F8E020C5
:101BD80042F00072C3F8E020D3F8E02002F000726F
:101BE8000192019A1A6842F480221A601A6842F433
:101BF80080321A601A689403FCD55A6F42F00102C9
:101C08005A67864B5A6F9007FCD51A6842F480527F
:101C18001A601A689104FCD51A6902F03802182A69
:101C280017D11A68520707D41A6842F001021A60DD
:101C38007A4A13685B07FCD5784B1A6922F00702C9
:101C48001A611A6912F0380FFBD19A6922F00F0253
:101C58009A61724B1A6822F080721A601A6822F030
:101C680080621A601A6822F080521A609A6A22F01A
:101C7800030242F002029A629A6A22F47C7242F0EB
:101C880020029A62DA6A22F00C0242F00402DA6256
:101C9800DA6A22F00202DA621A6B22F4FF7222F088
:101CA800010242F0EF021A63DA6A22F00102DA62F4
:101CB8001A6B22F47E4242F400721A63DA6A42F422
:101CC8008032DA621A6B22F4FE0242F480321A631E
:101CD800DA6A42F40032DA621A6B22F0FE4242F00B
:101CE80080721A63DA6A42F48022DA621A6842F071
:101CF80080721A601A689401FCD59A6A22F47C32C0
:101D080042F480429A62DA6A22F0C002DA62DA6A3F
:101D180042F02002DA629A6B22F4FF7222F001028A
:101D280042F077029A63DA6A22F01002DA629A6B5A
:101D380022F47E4242F400729A63DA6A42F4002284
:101D4800DA629A6B22F4FE0242F400329A63DA6A8B
:101D580042F48012DA629A6B22F0FE4242F08072FC
:101D68009A63DA6A42F40012DA621A6842F0806210
:101D78001A602A4A13681801FCD5294B9A6942F45B
:101D880040429A619A699104FCD5FFF78BFE04469C
:101D98002448844201D200F05BFC204B9A6922F46B
:101DA80070629A619A6922F00F0242F008029A6101
:101DB800DA6922F0700242F04002DA61DA6922F44C
:101DC800E06242F48062DA619A6922F0700242F0BD
:101DD80040029A611A6A22F0700242F040021A62C6
:101DE8001A6922F0070242F003021A611A6902F026
:101DF8003802182AFAD10B48844201D300F028FC93
:101E0800074B9A6942F440429A619A699204FCD558
:101E1800054B0020054A1A6002B010BD0044025864
:101E280000480258001C4E0E2800002400389C1C54
:101E380008B5074802F04AFE38B10648FEF788FFA1
:101E48000448FEF7F1FA002008BD6FF01200FBE726
:101E580050500008611E00080A2838B50446074D8E
:101E680004D1AB680D2128465B689847AB68E1B29E
:101E780002485B689847204638BD00BF50500008AC
:101E88002DE9F843D0F804801746D0F810900D4695
:101E9800D8F808001E4601F047FFB7F5001F0446B2
:101EA80016D1D8F808402846FFF748F884420CD1E4
:101EB800294601F039FF044601F039FF2046FFF7B3
:101EC8002BF80021204601F03BFF0020BDE8F883F5
:101ED800B7F5800F20D0B6F1806F19D0B6F1C06F7A
:101EE80018D0B6F1007F1AD102264A460F4920467B
:101EF800FEF7F2FFB0B9D8F80810284601F049FFFC
:101F08002046314601F01CFF2046FEF7CDFFDCE7F6
:101F18000126EAE70326E8E76FF08500D6E76FF0C9
:101F28001500D3E76FF00F00D0E700BF394800086D
:101F380038B50369044658600A4D284602F0C6FDC4
:101F480060B1AB6861681B680C3123B128469847BB
:101F580000EAE07038BD6FF05700F9E76FF0120043
:101F6800F8E700BF904E00082DE9F047044600EB63
:101F7800C10600251C4FB44201D1002014E020689E
:101F8800C30600F01F0911D4656845F02005C0F3A9
:101F9800481AC0F34420102823D857F82080B8F1F5
:101FA800000F0DD16FF01200BDE8F087B9F1100FE6
:101FB80004D0B9F1110FEAD16568E8E73025E6E702
:101FC800404602F083FD0028ECD04B462A460AF032
:101FD8000F01404602F042FC002804F10804CADA66
:101FE800E2E76FF01500DFE7DC570008F8B50C46AC
:101FF800036941685D682379012B15D09F1E7E42D5
:102008007E41B6026279022A96BF444F4FF40057C8
:1020180037F81270A279022A09D0042A2FD0003B7F
:1020280018BF01231B0306E04FF4C066EAE7B3FAC2
:1020380083F35B091B07E2790968012A14BF4FF093
:10204800000C4FF4407CA5421CD10A6822F0805253
:1020580022F4B05232431A430A604B6823F44053C7
:102068003B434B6043681A68936823F4407343EA20
:102078000C0393602968BDE8F84002F095BC4FF462
:102088008053D8E7D1F800E00EF4C06E764506D04C
:10209800D1F800E02EF4C06E4EEA06060E604168E4
:1020A8000E68716801F440518F4204D0716821F4C0
:1020B80040513943716041680E68316801F0102160
:1020C8008B4204D0316821F010210B433360436800
:1020D80019688B6803F440739C4505D08B6823F41A
:1020E800407343EA0C038B6043681B689968490492
:1020F80005D5032A09D09A6822F4804204E0032A0D
:1021080003D19A6842F480429A6021682B68994208
:1021180003D002F049FC23682B60F8BD88580008FA
:10212800F7B50646446805695A48286002F0CEFCAF
:10213800002800F0A4802868E16883681B68002BE9
:1021480000F0A18098470028C0F29B8001AA0021D6
:10215800206A02F09BFB0028C0F29380019B0022BA
:1021680019791868FFF700FF0028C0F28A8075689F
:1021780033692C685F68236823F00103236068686B
:1021880002F0A4FC00287AD0D5E901018368DB6855
:1021980003B1984754E8003F43F00C0344E8003289
:1021A800002AF7D139463046FFF720FF2B7D1BB1B7
:1021B800A36843F00803A3606B7D1BB1636843F415
:1021C80000436360AB7D1BB1636843F48033636095
:1021D800EB7D1BB1636843F4003363602B7E002BF7
:1021E8003BD02D4B9C421ED0A3F54C439C421AD0A9
:1021F80003F580639C4216D003F580639C4212D09D
:1022080003F580639C420ED003F544439C420AD0F8
:10221800A3F51C439C4206D003F580639C4202D080
:102228001E4B9C4232D173681A68936843F480430A
:10223800936023686A7E23F0787343EA42532360ED
:102248002368AA7E23F4F81343EA02432360EB7E53
:102258001BB1A36843F40043A3602B7F1BB1236821
:1022680043F000532360236843F001032360E369CC
:102278009A02FCD5E3695B02FCD5002001E06FF00F
:10228800120003B0F0BD6FF05700FAE76FF01500C9
:10229800F7E700BF904E000800100140000C0058FE
:1022A800F8B5436802460E4691F805E01C680369D4
:1022B80008795D6801288B791FD1BEF1020F76D9A4
:1022C800022B1F464FF4C0614FF4005C00F087807A
:1022D800042B7FD020B1C31E012B7DD94FF4805031
:1022E800BCF5805F00F08580BCF5405F00F083801E
:1022F800BCF1000F1CD101231BE002280AD1BEF15A
:10230800020F60D9022B1F464FF480610BD04FF4A7
:10231800005CDDE7BEF1020F58D9022B1F4657D1EA
:10232800002862D00021C31E012B55D900200227A6
:102338000323734550D102F0F5FAB8424CD1F37932
:102348001BB3012B59D12E4B9C421ED0A3F54C43F5
:102358009C421AD003F580639C4216D003F5806333
:102368009C4212D003F580639C420ED003F544438F
:102378009C420AD0A3F51C439C4206D003F5806317
:102388009C4202D01F4B9C4226D1236831461046FE
:1023980023F001032360FFF729FE236843F00103BC
:1023A800236096E8030085E803000020F8BD4FF499
:1023B800C061154F022B37F81EC01F4688D170B96F
:1023C8004FF080508CE74FF48061F2E70021F0E78E
:1023D80000219CE7002881D06FF08500E6E7C31E46
:1023E800012BF9D9022700207AE701464FF08050E7
:1023F8009EE700239DE702239BE7032BA3D0EBE78F
:1024080000100140000C0058885800084FF0E023E5
:102418000F4910B59C691A6908689B6902F48032F3
:102428000C4934B993B903464AB90A681044C01A2A
:1024380010BD002B08BF03460AB9A342F5D90A68A4
:1024480002440A604FF0E0221269EEE70446F3E71F
:102458002C050024280500240A4B1022002083F8AC
:1024680023204BF68032084B1A604BF67F32074B1D
:1024780018604FF0E0235A6198611A6942F0070228
:102488001A61704700ED00E02C050024280500249F
:10249800684620F007018D4619B5FFF7B7FF1149C7
:1024A800114B0868D3E90042001942F10002C3E960
:1024B80000020E4A00230B604BF68033D2E900413C
:1024C800001BB0FBF3F043431B1941F10001C2E9C3
:1024D800003101F00DF8FEF745F8BDE819408546D2
:1024E800704700BF280500248000002478000024DD
:1024F8002DE9F041DFF8E08099B1421C0BD14FF093
:10250800E022136923F0010313614FF07F43C8F8F9
:102518000030BDE8F081D8F80060012807DC00270A
:102528000BE0431CD8F80060F7D14FF4AE7040F2CE
:102538005D139842A8BF1846471EEFF31185102374
:1025480083F31288BFF36F8FFFF760FF234C4FF0C0
:10255800E0239969D4E9002380184FF0000243F181
:102568000003C4E900031E4B1A601E4B1A68831A45
:102578002ED44BF6803C0CFB073303F53B437F33EB
:10258800B3FBFCF7131A40F6B8320CFB073393423F
:1025980038BF1346144A934228BF1346C8F8003080
:1025A8004FF0E022013B906953610023814293611F
:1025B800A1EB0003D4E9001238BF9B195B1842F164
:1025C8000002C4E9003285F31188BFF36F8FA0E7DA
:1025D80040F6B833E2E700BF2C0500248000002451
:1025E800280500247800002400E2FE0038B5EFF347
:1025F8001185102383F31288BFF36F8F084B1C6873
:10260800084B1B68E41AFFF701FF85F31188BFF335
:102618006F8F4BF680332044B0FBF3F038BD00BF1A
:10262800800000247800002438B5EFF311851023CA
:1026380083F31288BFF36F8F044B1C68FFF7E6FE25
:1026480085F31188BFF36F8F204438BD80000024C4
:10265800002854D02B4A936903F44043B3F5404F04
:102668001FD1294B294A0344934242D9284B294A6E
:10267800034493423FD9284B984240D80020274A28
:10268800136823F00F0303431360136803F00F0369
:10269800984232D0136803F00F03C01A18BF012004
:1026A8007047936903F44043B3F5004F0ED11C4AB9
:1026B8001C4B02449A421AD91B4A02449A4218D91E
:1026C8001A4A02449A4216D90133D5E7184A194BD7
:1026D80002449A4209D9184A02449A4207D9174A29
:1026E80002449A4205D9164AEBE70420C7E70320BB
:1026F800C5E70220C3E70120C1E70346CDE7012073
:10270800704700BF00480258FFC4A7F7FFE0F5056F
:102718007FE2D3FB7F1D2C04801D2C040020005277
:10272800BF4C2AF6BF3B47037F8871F93FC4B8FC0A
:10273800FF6A45F53FA5AE023F10F4F77FB5A2FA50
:10274800BF5A51FD38B5EFF31185102383F3128872
:10275800BFF36F8F064B9C6802F0CBF985F31188A5
:10276800BFF36F8F2046BDE83840FEF77FB800BF43
:102778003005002438B50A4B53F82040013053F88F
:102788002050A54200D838BD606830B1037FDB0710
:1027980001D402F0B1F90834F3E723689847FAE75F
:1027A800705800082A4B0122032070B5294C86B0C6
:1027B800294D1A70FFF7DEFF00F012FF0420FFF723
:1027C800D9FF26463034AE4210D3224C00F00CFC20
:1027D800224EAC4226D300F01BFCFDF759FD204ADF
:1027E800137B23F00103137306B070BD54F80C3C3F
:1027F800059354F8103C049354F8143C039354F88C
:10280800183C029354F81C3C019354F8203C009364
:1028180054E90A2354E90C0100F0F8F954F8303C63
:102828005E65CEE7D4E90A23B3F1FF3F08BFB2F1F2
:10283800FF3F05D052EA0301206803D100F024FCD1
:102848003034C6E73146183000F0C0FDF8E700BF65
:102858006105002440550008405500084F4C000809
:102868000801002406480021064A08B5121A02F099
:102878005AF90548054A0021121A02F054F908BD10
:1028880078000024640500240000002000000020D7
:1028980070B5002386B00122144E01930446144DEE
:1028A80006EBC0161349CDE904230F22CDE9023205
:1028B80014234FF4A07203FB00554FF4C0700E4B65
:1028C80000FB04113046009500F0A0F9737B0B4A19
:1028D80023F00403EE602C7473734FF4046304FB59
:1028E800033313446B6006B070BD00BF880000243A
:1028F80030050024C00D0024374B00088005002453
:10290800BFB50020FFF736FF274B83F30888274D14
:102918000024F023264F85F82230EC772C766C764D
:10292800AC7685F820406B6A43F4E0236B62FDF7D0
:102938006DFFFEF78BF84FF0FF33AB62EB62FEF7EB
:102948004BF91C4DFEF7A6F81B4800F0ADF902F054
:10295800BCF8FDF7AFFD0120FFF70CFF0220FFF7E1
:1029680009FF00F089FB154B15494FF480625D6142
:102978002846144B009405930123CDE90144CDE981
:1029880003433B4600F042F96A7B0646284622F09C
:1029980004026A7302F02BF92046FFF779FF3A46E2
:1029A80031462846FEF734F8C00D002400ED00E05B
:1029B800AD27000808010024880100243005002400
:1029C800400F00244F5B00082DE9F34104461746E9
:1029D8001E46EFF31188102383F31288BFF36F8F1D
:1029E800C368334A7BB180689168884219D057EA36
:1029F800060318D188F31188BFF36F8F6FF00F00AB
:102A080002B0BDE8F081916891F90E10013321619F
:102A1800E3609368A36088F31188BFF36F8F002089
:102A2800EEE72169F2E791F90E106FF07E0290F956
:102A38000E309942A8BF19469142B8BF11468B4241
:102A48002DDD02F07FF80546224641461948CDE9BA
:102A5800007600F00FFA0028E1D0EFF3118610237A
:102A680083F31288BFF36F8FA068D0B12368216900
:102A78009C420AD04BB193F90E309942A8BF19462F
:102A88006FF07E039942B8BF194602F05BF840B177
:102A98003146084800F082FA6FF00A00B0E70025D6
:102AA800D2E7002DF4D186F31188BFF36F8FF3E7D7
:102AB8003005002462050024F8B583680546002B1C
:102AC8003FD0234A926893423ED1C368012B03D971
:102AD800013BC3600020F8BDEFF31187102383F397
:102AE8001288BFF36F8F0169806802F02BF82C6899
:102AF800A54207D10023C5E9023387F31188BFF344
:102B08006F8FE7E7002CF5D0002604F11800D4E910
:102B1800003213605A60637BA66023F00203C4E9A5
:102B28000066637302F0AAF8AC6094F90E30204690
:102B38002B61A66702F05BF83946064800F02EFACA
:102B4800C8E76FF01500C6E74FF0FF30C3E700BFD6
:102B5800300500246205002470B5EFF311861023B8
:102B680083F31288BFF36F8F0468A0421AD0CCB1E8
:102B7800002504F11800D4E9003213605A60637B21
:102B8800A56023F00203C4E90055637302F076F8E8
:102B98002046A56702F02BF831460848BDE870408A
:102BA80000F0FCB9D0E902329A4218BF01338360C1
:102BB80086F31188BFF36F8F70BD00BF62050024D4
:102BC80013B5EFF31181102484F31288BFF36F8FCC
:102BD800846844B1013C846081F31188BFF36F8F2E
:102BE800002002B010BD52EA030406D181F3118817
:102BF800BFF36F8F6FF00F00F3E7CDE900230246B4
:102C0800014800F037F9ECE76205002407322DE9A6
:102C1800F04322F0070285B00E461F46109900F1D6
:102C280058037F3204460173042122F03F0206F163
:102C3800400941733F2AA2F14008C0E916334FF01A
:102C4800000383600F98E373A073C4E9063305D8C3
:102C580083F31188BFF36F8F084602DFB51820464B
:102C68002946FDF75FFC07300E9B314620F0070030
:102C7800C4E91898A0662D1A029320460D9B2A468F
:102C880001930C9B00933B46FDF796FE002363657A
:102C9800044B9B6803B1DB6E2846E36605B0BDE8CC
:102CA800F08300BF3005002440F201138381002324
:102CB800C0E91833C366014B98607047300500249B
:102CC800094A6FF00A0193689967084958674B6881
:102CD80043F080534B60002383F31188BFF36F8F59
:102CE8009368986F704700BF3005002400ED00E03E
:102CF80070B590F90D20437B002A36DBD90634D114
:102D08001B4C63F07F0322464373E16952F8183F76
:102D1800934207D1C0E900210860E06111E09942BF
:102D2800F8D01B68002BF5D090F90E5093F90E607F
:102D3800B542F4D0AE42F2DD5968C0E9003108600E
:102D48005860A569954200D005B9E568A3685A7B23
:102D5800D20604D1DA897F2A01D9AA6932B1AB42F5
:102D680002D0284600F084FA656170BD6361FCE713
:102D78003005002438B590F90D200146437B002A20
:102D880004DA03F07F03437301F0F7FE0D4D2A4682
:102D9800AB6852F8184F944200D004B9EC688B42E3
:102DA80007D05A7BD20604D1DA897F2A01D9A269D1
:102DB8002AB1A34202D0204600F05AFA23466B619A
:102DC80038BD00BF30050024B3F1FF3F08BFB2F1A2
:102DD800FF3F03D00249183000F0F8BA704700BF2F
:102DE8004F4C000870B590F90D200146437B002A2E
:102DF80004DA03F07F03437301F0BFFE4B7B1C4CE6
:102E080063F07F0322464B7352F8183FE069934200
:102E180007D1C1E900200160E16111E09842F8D0D2
:102E28001B68002BF5D091F90E5093F90E60B5424E
:102E3800F4D0AE42F2DD5868C1E900300160596053
:102E4800A569A368954200D005B9E5688B4207D00B
:102E58005A7BD20604D1DA897F2A01D9AA692AB114
:102E6800AB4202D0284600F003FA2B46636170BDDE
:102E780030050024F8B50E4B0C4611460D4A9868EB
:102E8800DDE906671060EFF31182102282F31288E1
:102E9800BFF36F8F9D68284601F081FE28463246B1
:102EA8003B46FFF791FF2046BDE8F840FFF708BF13
:102EB8003005002450050024F8B50446EFF31187C7
:102EC800102383F31288BFF36F8F437B49B203F05B
:102ED8001F02002A0CBF0126002639D103F07F0308
:102EE8002D4D437301F049FE437B2A46817363F0FD
:102EF8007F03437352F8183F934227D1E869C4E926
:102F080000200460EC610FE09842F8D01B68002BA9
:102F1800F5D093F90EC06145F6D08C45F4DD5968BB
:102F2800C4E900310C605C60AC69944200D004B91B
:102F3800EC68AB689C4202D0204600F099F96C61BD
:102F480087F31188BFF36F8F3046F8BDE869DEE775
:102F58009B071ED5856801F010FE81732B689D4282
:102F680009D16B68C4E900531C606C60E8E76A68C3
:102F78009342F6D01B68002BF3D093F90E209142B0
:102F8800F5D08A42F3DD5A68C4E9003214605C6007
:102F9800D6E78173D4E700BF3005002449B9EFF3C1
:102FA800058030B9054B5A699B689A4201D0FFF7F2
:102FB80087BE81F31188BFF36F8F704730050024F7
:102FC800034648B9EFF3058232B9064A5169926857
:102FD800914201D0FFF774BE83F31188BFF36F8F5E
:102FE800704700BF30050024EFF31181102383F3ED
:102FF8001288BFF36F8F054B9A68D37B013BD3735D
:1030080081F31188BFF36F8F704700BF300500242C
:1030180070B5EFF31186102383F31288BFF36F8F17
:10302800144DAB68DA7B0132DA732A4652F8184F2E
:10303800944200D004B9EC685A7BD20604D1DA89EC
:103048007F2A01D9A2692AB1A34202D0204600F002
:103058000FF923466B6186F31188BFF36F8FEFF387
:103068001180102383F31288BFF36F8FBDE870407F
:10307800FFF7A6BF30050024024B03F11802C3E98D
:10308800062270473005002438B50446EFF3118551
:10309800102383F31288BFF36F8F437B5B070FD531
:1030A800183001F0EBFD637B204623F004036373C3
:1030B800FFF71EFE29460548BDE83840FFF76EBFFA
:1030C80085F31188BFF36F8F38BD00BF62050024F8
:1030D800014B9868704700BF300500242DE9F8437C
:1030E8000446077BEFF31185102383F31288BFF39F
:1030F8006F8F437B190705D585F31188BFF36F8F51
:10310800BDE8F883D90943F008025AD14273A3688D
:1031180013B1204601F039FD04F1180004F15808F4
:1031280001F0ACFDA66DB04511D04FF0000976B1A5
:10313800304601F02AFD06F1180001F09FFD3046E7
:10314800C6F87890FFF7D4FDA66DB045EFD1DFF84B
:10315800B880D8F808309C423BD1EFF30589B9F123
:10316800000918BF4FF00109D8F81860274A96429D
:1031780000D00EB9D8F80C60B34202D0304600F047
:1031880077F8C8F81460B9F1000F02D02048FFF7AB
:103198008BFDD8F808309C4231D1EFF3058373BB1F
:1031A800227BD20718D42846FFF78AFDFB07A7D54C
:1031B800002383F31188BFF36F8F0423184602DFBF
:1031C8009EE703F07F0343F00803437301F0D5FC47
:1031D8009DE74FF00009C7E785F31188BFF36F8FAC
:1031E80083F31188BFF36F8F0423184602DFEFF3D0
:1031F8001180102383F31288BFF36F8FD4E785F310
:103208001188BFF36F8FD1E73005002448050024EB
:1032180088010024044B0122C01A044BC0105843F3
:10322800034B1A54704700BF08020024ABAAAAAA8D
:1032380062050024C3897F2B12D80A4B1B6863B12F
:10324800094B90F90E201B689A4209DB437BDB0689
:1032580006D1064BC31A18BF012303F001007047BB
:103268000023FAE7580500245405002488000024A8
:103278000E4B70B51E7C05460D4C06EB460304EB61
:10328800C304204601F0FAFC0A4B002228469A554E
:10329800FFF7D0FF48B1084B204608491A68013AA1
:1032A800BDE87040D31700F091B870BD3005002418
:1032B8000802002462050024580500241D32000875
:1032C80038B5EFF31185102383F31288BFF36F8F9E
:1032D800104B114A9C681068A04206D1FFF7C8FF3E
:1032E80085F31188BFF36F8F38BD00211B7C1160F7
:1032F8000A4AD35C002BF3D02046FFF79BFF002837
:10330800EED0637BDB0602D12046FFF76BFD20463B
:10331800E4E700BF300500245005002462050024BE
:103328000A480B4A0B49121A08B501F0FEFB0A4875
:103338000A4A0B49121A01F0F8FB0A480A4A0B49D3
:10334800121ABDE8084001F0F0BB00BF00000024DD
:1033580074000024A05B0008000000240000002482
:10336800A05B00080000002000000020145C00089A
:10337800024B1868984208BF002070472C000024B0
:10338800034B1B680BB9FFF731B90020704700BF2A
:103398005C05002430B570B10B4B5B6898420AD0CD
:1033A800036843B1D3E90421D0E90445121941EB7C
:1033B8000501C3E90421D0E9003213605A600023F3
:1033C800C0E9003330BD00BF2C000024B3F1FF3F3B
:1033D80008BFB2F1FF3F2DE9F84F0446994615465C
:1033E8001F467BD08160EFF31188102383F3128886
:1033F800BFF36F8F0132DFF8ECA079F1FF3320DBE8
:10340800FFF7BEFF0135064649F100092D18DAE934
:10341800002749EBE0734FF00109C4E90453AD18E4
:1034280043EB0707FFF7A4FFDFF8BCE00346DEF82D
:1034380004A0EBB9C4E900EACAF80040CEF8044099
:1034480028E0DAE900126FF001035B1A4FF0FF3150
:1034580061EB02025B1B62EB0902012B4FF00009D2
:1034680072F10001BCBF01230022C0E90432D9E790
:10347800D3E9041CD4E904208A4270EB0C0B24DA4B
:10348800891A5A686CEB0000C3E90410C4E90032D9
:1034980014605C60FFF76CFF84420ED1134B1B680D
:1034A8005BB9B9F1000F02D1FFF76AFF0646304653
:1034B80001F0CDFB0021FFF71BF888F31188BFF35B
:1034C8006F8F28463946BDE8F88F521A60EB0C001A
:1034D8009A45C4E90420ADD01B68AAE700252F4609
:1034E800EFE700BF200200242C0000245C05002424
:1034F8002DE9F047EFF31185102383F31288BFF30A
:103508006F8FDFF8A4900026DFF8A0800027C9F8A5
:103518000000FFF72DFFD9F80030D8E900ECD917E3
:1035280050B1D0E90442A34271EB020A1CDAE41A52
:1035380062EB0102C0E9044213EB0E034FF00004F2
:103548004CEB01012046C9F80040C8E9003101F000
:103558007EFB2146FEF7CCFF85F31188BFF36F8F02
:10356800BDE8F047FFF7ACBE14EB0E024CEBE4737A
:10357800C0E90467C8E90023FFF70CFF85F3118849
:10358800BFF36F8F83689847EFF31185102383F398
:103598001288BFF36F8FD9F800301B1BC9F80030B1
:1035A800FFF7E6FEB7E700BF5C0500242002002411
:1035B80010B5EFF31184102383F31288BFF36F8FD4
:1035C800FFF7DEFE054A0346D2E90001181841EB71
:1035D800E37184F31188BFF36F8F10BD20020024BC
:1035E800014800F05CBB00BF545B000838B5064CCE
:1035F800064DAC4201D3002038BDD4E90112204663
:10360800143401F065FBF4E774000024740000240E
:103618002DE9F04F8DB043680293837815469A07D9
:10362800804640F10D8100240E78002E00F00A81BA
:10363800252E0BD04B1C03930134029B4146304688
:1036480098470028C0F2F6800399EDE74E788B1C66
:10365800252E0393F0D00027B946BB46BBF11F0FB8
:1036680038D8A6F12003102B0AD8DFE803F02A097E
:1036780009300909092109090928092D09091F0023
:10368800A6F13003092B33D92A2E37D11BF0400F6E
:1036980055F8043B40F08280002BA7BF4BF0200B6D
:1036A8009946C3F100094BF0280B01E04BF0010BE0
:1036B800039B13F8016B0393002ECFD130E04BF03E
:1036C800020B4BF0040BF3E74BF0080BF0E74BF061
:1036D800100BEDE7BBF17F0F19D8A6F13003092BCA
:1036E800D2D81BF0400F03D00A2101FB0737DFE7D0
:1036F8000A2101FB09394BF0200BD9E72E2E06D100
:103708001BF0400F40F09E804BF0400BD0E76C2E32
:1037180031D02BD8682E36D06A2E3CD04C2E3AD0D9
:10372800002F46F02003B8BF2BF04002A3F165013B
:10373800BCBF1FFA82FB0027022901D9612B2FD1B8
:10374800073525F00705DFF8ACA2083507271BF079
:10375800080F66D00AEB070B56465E4563D1A4EB0B
:103768000A0A06EB0A02A9EB07096FE1742E9FD03B
:103778007A2E9DD0D4E71BF0800F18BF4BF4007B46
:103788004BF0800B94E71BF4807F18BF4BF4007B51
:103798004BF4807B8CE74BF4207B89E71F4687E757
:1037A800A6F16301122900F2F080DFE811F013009E
:1037B8004F00EE00EE00EE00EE004F00EE00EE00CF
:1037C800EE00EE00EE00FE00E900EE00EE001B0049
:1037D800EE00AF0055F8043B8DF8183001270DF1C5
:1037E800180AB4E755F804AB834BBAF1000F08BFC9
:1037F8009A461BF0400F14BF39464FF0FF31504630
:1038080001F084FA0746A2E7029B41462020984728
:1038180000280FDB013EB742F6D34C44A41BB14647
:1038280098E74E46F7E716F8010B029B4146984782
:10383800002892DA98F8023043F0040388F802303E
:103848004FF0FF3420460DB0BDE8F08F1BF0800F1D
:1038580034D01BF4007F2CD0073525F00705AA4685
:1038680069685AF8080B2BF010050029ADB237DA51
:10387800404261EB410145F480650DF1180B0A23C4
:103888005A4601F04FFAA0EB0B0301936B0662D581
:10389800019B25F001019F4289B240F3A180002ECF
:1038A80000F0998015F0100240F09C80BB460D4650
:1038B80023E0AA465AF8040BC117D4E7AA461BF41A
:1038C800807F5AF8041B01D10846F5E71BF4007FF6
:1038D80015BF48B208B241F3C01141F3C031C2E785
:1038E80050EA0103C9D11BF0400FC6D0002FC4D144
:1038F8002BF0110295B2BB46019740F2064115EA3A
:1039080001021CBF0BF1010B00222CE02BF010026E
:103918001FFA82FB0A231BF0800C49D01BF40071AC
:103928001DBF073525F00705AA46AA461ABF5AF84B
:10393800080B69685AF8040B50EA010545D12BF0C9
:1039480016051BF0400FADB242D0002F40D12BF02E
:10395800170295B2019715F0100248D0019B002E6E
:1039680042D103F1010B29075AD4EB0706D5D945F3
:103978006FDD0199A9EB0B035F18CB465B4649E065
:103988004BF0100B10237826C5E7782B04D1C6F12D
:10399800780343F01003BEE7029B41462520984771
:1039A8000028FFF647AF023447E608230026B2E7AF
:1039B800AA461BF480715AF8040BBDD01BF40071A1
:1039C8001ABFC0B2614680B2B6E72BF0060295B2C4
:1039D8000DF1180B54E725F01105ADB2BB468CE785
:1039E8000D46B8E73B460D4603F1020BBBE7DDF891
:1039F80004B082E7965B00088F5B0008CDE90432CB
:103A08004146029B202098470028FFF613AF049BED
:103A1800059A01339945F1DCA4EB0B01CC189B46C0
:103A28000AB3029B4146302098470028FFF602AFB0
:103A38008EB901342744019B391B994224DC1D4669
:103A48005DBB019AA9EB0B092244554614469144E3
:103A580035E0019F92E7023441463046029B984781
:103A68000028E7DAE6E640F206410D42E2D015F01A
:103A7800020F14BF2B20202015F4806F04F10104DD
:103A8800414618BF2D20E9E7029B41463020984760
:103A9800002804F10104CEDACCE606AB013D41462C
:103AA800585D029B98470028CADAC3E6029B414644
:103AB80020209847002804F10104FFF6BBAEA9EBCB
:103AC8000403002BF2DCBFE570471046FFF744B84B
:103AD80001F10C00FFF740B8836800EBC101B3F5B2
:103AE800004F2CBF51F8220031F81200704700EB4C
:103AF800C1018068B0F5004F2CBF41F8223021F891
:103B080012307047012208B5FFF7E6FFD04008BD24
:103B1800836800EBC101B3F5004F08D34B681AB1B5
:103B280043F001034B60704723F00103FAE74B8829
:103B38001AB143F001034B80704723F00103FAE701
:103B480053000122FFF7D3BFB0F5004F01F1010088
:103B580034BF042308230833A0EBD300B0FA80F065
:103B6800C0F11F0070472DE9F04186680D460446F4
:103B7800FFF7C8FFB6F5004F014601D3012832D040
:103B88003046FFF7E1FF04EB80010E6996B9012288
:103B9800E3688240204613430222E3602B460D610E
:103BA8002946FFF7A4FF032229462046BDE8F04135
:103BB800FFF79DBF022231462046FFF78DFF2946B9
:103BC800034607462046FFF792FF0322334629465D
:103BD8002046FFF78CFF39462B462046FFF787FF24
:103BE80002223146E1E7BDE8F081B2F5802F2CBF13
:103BF80008230423D21A2DE9F0418C18CD1D002684
:103C080025F0070524F00704641B0560EE60E4084E
:103C180021462046AC60FFF797FF421D0130314630
:103C28004FEA820205F1100002F10707A2F1100223
:103C3800B8BF3246FF0801F061F831463A462846D7
:103C4800FFF77EFFA4EB0708334632463146284685
:103C5800FFF74DFF284631460122FFF759FF42463C
:103C68003946FFF76DFF3B46324639462846FFF78F
:103C78003EFF21462846FFF763FF4346324621466A
:103C88002846FFF734FF214628460122FFF740FF68
:103C98003946BDE8F041FFF766BF002070470FB412
:103CA80007B504A951F8040B0191FCF7C3FB03B055
:103CB8005DF804EB04B070477047012801D1EFF3B9
:103CC8000583FEF73FBD01460068FFF7F6BF0021F8
:103CD8000120FFF7F2BF61B662B680F31188BFF327
:103CE8006F8F704772B6002383F31188BFF36F8F0D
:103CF800BFF34F8F30BF62B6BFF36F8F7047202876
:103D080009D9B0F1004F08D80138B0FA80F0C0F1F5
:103D18001F0040007047082070473E20704708B5D4
:103D2800FDF70EF8002008BD0120884070474FF0CD
:103D3800B042D2F8803023EA0003C2F880307047DE
:103D4800032925D8DFE801F0020D121C4FF0B0431B
:103D58001A6822EA00021A605A6822EA00025A60C7
:103D680070474FF0B0431A680243F4E74FF0B0438E
:103D78005A6802435A601A6822EA00021A607047B9
:103D88004FF0B0431A6802431A605A6810435860EB
:103D9800704700F003020F2304329200934043EA75
:103DA800900000F00303020C92FAA2F29B00B2FA10
:103DB80082F203F1B04302F01F0210B5D3F80844B1
:103DC800914024EA10400143C3F8081410BD10467E
:103DD8001161FEF7C1BEF0B4D0F808C082680C8843
:103DE800158E8368A54228D85D8FA54225D34D88B6
:103DF800568EAE4221D89E8FAE421ED38E88958EA7
:103E0800B5421AD8DD8FB54217D3CD88D78EAF42C9
:103E180013D8B3F84070AF420FD30F89128FBA424C
:103E28000BD8B3F84230BB4207D3B44205D8AC42F2
:103E380003D8DCF81030F0BC18476FF08500F0BCF0
:103E4800704710B444686469A468A44610BC60470D
:103E580010B444686469E468A44610BC60474368C9
:103E68005B691B691847FEF7AFBDFEF725BE4368BF
:103E78005B691B68184743685B695B6818472DE9ED
:103E8800F743066905464FF0FF324FF0FF3310360F
:103E98003046FFF7E8FF01AA18212846FFF7E7FF99
:103EA800044670BB019A1821284642F0010201928B
:103EB800FFF7E1FF044620BB00F008FF01AA074610
:103EC800884628461821FFF7D2FF0446C8B940F2B1
:103ED800E939019BDB0714D400F0F8FEC01B61EB45
:103EE8000801484571F1000112DB019A18212846A2
:103EF80022F001020192FFF7BEFF041E08BF6FF017
:103F08000A043046FFF7B1FF204603B0BDE8F0834E
:103F180001AA18212846FFF7AAFF0028D9D004468D
:103F2800EFE7032300200B6070472DE9F74FD0F827
:103F380010800546D0F804A098F80430002B61D111
:103F4800DAF8000018BB2E694FF0FF324FF0FF334C
:103F580010363046FFF787FF01AA18212846FFF7D9
:103F680086FF044648B9019A1821284622F0010222
:103F78000192FFF780FF0446A8B13046FFF775FFAE
:103F8800DAF8000058B183685B68984707E08368EF
:103F9800D8F800101B68984704460028D3D020465C
:103FA80003B0BDE8F08F00F091FE01AA07468946EC
:103FB80028461821FFF75BFF04460028DDD140F2B0
:103FC800E93B019BDB0708D43046FFF74EFF002C86
:103FD800D6D1012388F80430E1E700F077FEC01B52
:103FE80061EB0901584571F1000108DA01AA1821AD
:103FF8002846FFF73CFF0028E3D00446E4E76FF0CB
:104008000A04E1E76FF07704C9E703292DE9F341D2
:1040180080460D46066946D83379002B46D106F10D
:1040280010074FF0FF324FF0FF333846FFF71BFF02
:104038006A4618214046FFF71AFF044660BB01AAEA
:1040480010214046FFF713FF044628BB009BEA07F0
:104058004FF01801404649BF43F0800323F0800326
:104068000093019B54BF009343F01003009A48BF8C
:104078000193AB074CBF42F0200222F020020092CD
:10408800FFF7F9FE044638B9019A10214046FFF7B8
:10409800F2FE044600B935603846FFF7E6FE2046D2
:1040A80002B0BDE8F0816FF08504F8E76FF00F0407
:1040B800F5E737B50446456801AA5021FFF7D7FE52
:1040C80018B9019A12F0990201D103B030BD5021FC
:1040D8002046FFF7D0FE0028F7D1019BDA0705D567
:1040E800A823A422698E2046FDF76AF8019BDB0607
:1040F80005D5B823B422A98E2046FDF761F801AA98
:1041080050212046DAE7F7B5064615460C4649B170
:1041180001AA44210769FFF7AAFE28B93B792BB900
:104128000423237085B9002003B0F0BD019B190654
:1041380001D50323F5E79A0601D50223F1E713F029
:10414800400318BF0123ECE701AA40213046FFF7DE
:104158008EFE0028E8D1019B2B70C3F306236B70F9
:10416800E1E743689B6909B1987B7047587B7047C2
:104178002DE9F74F1C7A8246D0F804B00F46012C7F
:1041880090469C46DBF8185037D88CB30024DCF8EE
:1041980000200669CDF80340009B10368DF80740D3
:1041A80062F31C03019A3046009302F00052DCF8D7
:1041B800043023F0604343F0004313434FF0FF32D1
:1041C80001934FF0FF33FFF74EFEAB7B9C4205DBBC
:1041D8003046FFF74AFE6FF01B0006E0AA6852F867
:1041E80034206AB10134F1E72CDA03B0BDE8F08F6E
:1041F80003B0BDE8F04FFDF7A3BA6FF08500F4E710
:1042080004F001039DF80320BBF830105046013339
:104218004FEAC40901EBC40163F34712082389B2CA
:104228008DF803206A46FFF713FE0028DCD13046DC
:10423800FFF71BFEAB68204643F83470AB684B446D
:10424800C3F804806B7B1844CFE72DE9F0410C1EBE
:10425800D0F8048005460769D8F8186033DB1037B2
:104268004FF0FF334FF0FF323846FFF7FCFD737B0A
:10427800A3421ADCE31AB27B934204DB3846BDE85A
:10428800F041FFF7F2BDB268002142F83310B2687E
:1042980002EBC30251600822B8F8301001EBC301E9
:1042A80089B22846FFF7DBFDE8E77368002243F888
:1042B8003420736803EBC4035A600422B8F82E1044
:1042C80001EB8401ECE7BDE8F0810369C3E9021260
:1042D800704737B5056904464FF0FF324FF0FF339A
:1042E80010352846FFF7BFFD01AA18212046FFF721
:1042F800BEFD38B9019A1821204642F00202019207
:10430800FFF7B9FD2846FFF7B0FD03B030BD2DE932
:10431800F8430769054644683B79A66983B34FF4B7
:104328007A720023FFF7ABFD68BB206860B90024F0
:104338002846FFF7CEFF2437A14607F8204C337BE9
:104348009C4208D3002004E083685B6898470028F3
:10435800EDD0BDE8F8833368E20053F83480B8F153
:10436800000F0BD043F834906FF072013368284681
:1043780013445A68C0473846FEF7EEFB0134DEE7BF
:104388006FF07700E5E76FF00400E2E7F8B5044660
:104398000F4616464568FCF7BDFF10B16FF00400E4
:1043A800F8BD4FF47A7200232046FFF768FD002815
:1043B800F4D12046F61BFFF78CFFEA8DEB8B4FF606
:1043C800FC77324484211B0420463A4003F47F03DF
:1043D8001A43FFF750FD0028E2D12A8E88212B8C42
:1043E800204632441B043A4003F4FE031A43FFF705
:1043F80042FD0028D4D16A8EA0216B8C204632441D
:104408001B043A4003F4FE031A43FFF734FD002867
:10441800C6D1AA8EB021AB8C204632441B043A4048
:1044280003F4FE031A43FFF726FD0028B8D1EA8EED
:10443800AC21204632443A40FFF71DFD0028AFD199
:104448002A8FF0212B8D204632441B043A4003F476
:104458007C131A43FFF70FFD0028A1D16A8FC021F2
:104468006B8D204632441B063A4003F07C531A43B6
:1044780042F08042FFF7FFFC002891D10722C821B3
:104488002046FFF7F8FC00288AD1204640F27772D0
:10449800BC21BDE8F840FFF7EEBC436800201B6C68
:1044A8001B68CB5813607047436800201B6C1B685F
:1044B800CA507047406823F00303006C13448068B7
:1044C8000144891A934202EB010001D10020704790
:1044D800006842F8040BF5E710B5406823F00303C1
:1044E800006C134480680144891A934202EB01006E
:1044F80001D1002010BD52F8044B0460F5E7436871
:1045080022F003021B6C9B68194400230A448A4268
:1045180001D10020704741F8043BF8E7002213203E
:10452800114608B5FCF708FA1320FCF7F7F9002242
:1045380015201146FCF700FA1520BDE80840FCF7E5
:10454800EDB90B8882B0C3F30B0303F62C72C2F3E8
:104558000B02202A14D803F1B043486803F511333D
:104568001A68024300201A600B88C3F30B0303F197
:10457800B04303F511331B680193019B02B07047E8
:104588006FF08500FAE70B88C3F30B0303F62C7270
:10459800C2F30B02202A0AD803F1B043496800206D
:1045A80003F511331A6822EA01021A6070476FF0A6
:1045B800850070470D2809D843F63A73C34013F0B5
:1045C800010F14BF00206FF0850070476FF0850061
:1045D800704710B50888C0F30B00FFF7EBFF002801
:1045E8001FDB4A68FF2A1BD093B2C2F38454C2F37C
:1045F800054203F1B04304FA02F203F511331868D7
:1046080020EA02021A6049688BB2CA0EC1F305415A
:1046180003F1B0438A4003F51133186802431A6066
:10462800002010BD436800205B681B690B60704761
:1046380043685B68586942400A40424000205A611A
:104648007047436800205B689961704743680904B4
:1046580000205B6899617047436800205A68536975
:104668004B405361704710B503699868F8B18842A8
:1046780019D1DC680868A142986000D1D860002090
:1046880008602AB19A680A60DA68996002B9D96044
:10469800002010E0814206D108682060D868814275
:1046A800EDD1DC60EBE7044600680028F2D1002A6F
:1046B800E8D16FF0150010BD2DE9F04144680120E4
:1046C800C2F38016C2F3C11C676888408E4002F0AE
:1046D800300527EA0007C2F34122202D46EA0706E3
:1046E80000FA01F7666007EB470ED4F8088007FB6D
:1046F8000CFC07FB02F26FEA0E0628EA0E084CEAE9
:10470800080CC4F808C0D4F80CC02CEA0E0C42EA15
:104718000C02E2600CD1072912D807FA01F2206ACC
:104728008A40C2EB02115A4320EA01010A4322627D
:1047380023682D091E407D4335432560BDE8F0817F
:10474800020A616A52435243C2EB0210534321EA00
:1047580000010B436362EBE712F4003CF8B5054631
:104768000C4613461DD0960714D550075DD5502228
:10477800D90611D542F4007203F4C061B1F5806F17
:1047880042D0B1F5C06F19D0B1F5007F18D142F011
:10479800800215E01022EBE79F06EDD542F4806217
:1047A800EAE7D60305D5D00605D4C2F34012920233
:1047B800E2E73022E0E74FF40072DDE742F4C0722E
:1047C80013F440372E6908D0306920FA04F1C9077C
:1047D8005FBF0121A14001433161BCF1000F06D048
:1047E800180314D5696801234968A3408B61002325
:1047F80021466868FFF760FF27B9336923FA04F296
:10480800D2070CD40020F8BD42F48072D8E75903CF
:10481800EDD501212846A140FFF718FFE7E701225F
:10482800A24023EA02033361ECE76FF08500EAE770
:1048380070B50B468968054611B15E680C6801B908
:1048480070BD8A682A4002D04B68304698471CB130
:10485800236821461C46F2E72346FAE7F8B51F46C7
:10486800044640680E461546FFF726FF112F07D16C
:1048780001212B0501FA06F104D563685B6899618B
:104888000020F8BD2046FFF7E1FEF9E730B50368E0
:1048980013600579046804EBC504A34202D36FF0E2
:1048A800010030BD5C798C4201D00833F0E700206C
:1048B800F7E74368C1F34B1001F01F011B68C058AC
:1048C80001238B4003424FF0000014BF0123002353
:1048D8001370704710B54368C1F34B1001F01F0106
:1048E8001A68012384588B4023438350002010BD4D
:1048F80010B54368C1F34B14012201F01F01186879
:104908008A40235823EA02032350002010BD38B5FB
:1049180004460D46FFF7DEFF29462046FFF7E8FF6D
:10492800002038BDB0F5805F07D0B0F1805F09D1B5
:10493800002914BF012002207047002914BF03205A
:1049480004207047002914BF0220032070474368E1
:104958001B68D869DA69C0F3C000D107DA6948BFB3
:1049680040F002009207DA6948BF40F0040051079E
:10497800DA6948BF40F02000D20504D54FF48072B0
:1049880040F008001A62C10701D508221A6282079E
:1049980001D501221A62410701D502221A62820654
:1049A80001D504221A62704737B502690C4643687C
:1049B80010681D68D9688368DB687BB101AA9847CD
:1049C80000280BDB2B6823F400432B6001992CB1E2
:1049D80001EB5401B1FBF4F189B2E96003B030BDD9
:1049E80010B5436810201B68DA691206FCD5EFF38E
:1049F800118280F31288BFF36F8FDC69240604D418
:104A080082F31188BFF36F8FEEE7996282F3118802
:104A1800BFF36F8F10BD43681B68DA69100701D5B3
:104A280008221A62DA69920603D55B6A00200B70C5
:104A380070474FF0FF30704710B5026904460B46C7
:104A4800526812680A6042681268126802F4C0620A
:104A5800B2F5806F33D0A2F5C060424242411A716C
:104A680062681268526802F44052B2F5805F28D03A
:104A7800B2F5405F27D0002A0CBF012203225A71E9
:104A8800626812681068116800F0102001F4C061B3
:104A9800FFF748FF9871626800201268926802F474
:104AA8004072A2F540714A424A41DA716168096868
:104AB800896811F4804F18BF0322DA7110BD0222F1
:104AC800CDE70022DBE70222D9E7704740B1C3688F
:104AD800587810F001001EBF1878B0FA80F040092D
:104AE8007047EFF31183102383F31288BFF36F8F9E
:104AF800FEE708B5FFF7F5FF10B54369044633B97B
:104B08000020E268537843F00103537010BD9847C2
:104B18000028F5D00028E368B8BF4042FF28A8BFA6
:104B2800FF201870EDE700F0E9B800F0D9B81024BC
:104B380008B5EFF3118384F31288BFF36F8FFFF783
:104B4800D1F8F6E790F90E308B4201D0FEF7B4B9F0
:104B58000020704703460020C3E90033C3E9020080
:104B680070473AB18A4205D3C0E90212C0E9000091
:104B7800002070476FF015007047D0E900321360CD
:104B88005A600023C0E90033704708B5FFF7F5FF06
:104B9800437B23F0020343730023836008BD38B5C9
:104BA80004460D46FEF7E6F8637B43F002036373A1
:104BB800E5B1A5602B689D4209D16B68C4E9005333
:104BC8001C606C6012E06A689A42F6D01B68002B81
:104BD800F3D094F90E2093F90E108A42F3D0914243
:104BE800F1DD5A68C4E9003214605C6038BD10B564
:104BF800EFF31184102383F31288BFF36F8FFEF74E
:104C080077F884F31188BFF36F8F10BD014610B594
:104C1800EFF31184102383F31288BFF36F8F437B64
:104C280013F0280F0AD183680BB1FFF7AEFF4B7B57
:104C3800084623F004034B73FEF75AF884F31188EF
:104C4800BFF36F8F10BD01211838FFF7DFBF08B51C
:104C58000246FEF78DFB70B1D0E904319B1A61EB77
:104C6800E272B3F1004F72F1000104DA002AACBF1E
:104C78001846002008BD6FF00040FBE7024638B533
:104C8800EFF31185102383F31288BFF36F8F036846
:104C9800CBB1FEF76DFB04461046FEF77BFB002206
:104CA8004FF000438442C0E9042306D1FEF768FBB5
:104CB800FFF7CDFF0021FDF71BFC002085F31188CD
:104CC800BFF36F8F38BD6FF01500F7E7FEF770BCC4
:104CD80010B400F10C04C0E9034410BCFEF785BF12
:104CE8000A44914200F1FF3300D1704710B511F822
:104CF800014B03F8014F9142F9D110BD024403461C
:104D0800934200D1704703F8011BF9E710B502463A
:104D180001448A42134603D01C780132002CF8D192
:104D2800181A10BDF0B5C3F137070446FFB203F0F7
:104D38001F031046082BE6B233D0102B3ED065086F
:104D4800A40844EA817445EAC1752D194FEA910215
:104D580042EB5102290941EA02716D1842EB121225
:104D6800290A41EA02616D1842EB1222290C41EA34
:104D780002416D1842EB1242AD1842F10002EC08F4
:104D880044EA4274D10804EB8402A6EB4205EDB272
:104D9800092D0CD90134A5F10A0541F10001EDB244
:104DA80012E0E40844EA417406F00705C908303502
:104DB80054EA010200F8015BBCD1F0BD240944EAC1
:104DC800017406F00F050909092D84BFED19EDB22C
:104DD800EDE7000001480068704700002802002441
:104DE80000000000904E0008A10400080000000028
:104DF800F53500080000000000000000B04E000873
:104E080000000000F04F00080000000010500008EB
:104E180000000000B04F000800000000D04E00085D
:104E280000000000D04F00080000000030500008CB
:104E380000000000904F000800000000704F0008BC
:104E480000000000504F000800000000304F00082C
:104E580000000000104F000800000000F04E00089D
:104E68000000000050500008391E00080000000033
:104E78006124000800000000710D00080000000017
:084E880000000000705000085A
:104E9000875A000800000000B85500085800002498
:104EA00000000000D11B000800000000000000000E
:104EB0002E5B000820580008A85500087000002448
:104EC00000000000000000000000000000000000E2
:104ED0004C5A0008000000000000000054000024AC
:104EE00048020024FD0D0008000000000000000042
:104EF000945A000800570008845500085A000024FE
:104F00004C040024391F00080000000000000000CD
:104F1000A25A000814570008845500085C000024B9
:104F200060040024391F0008000000000000000099
:104F3000B05A000828570008845500085E00002475
:104F400074040024391F0008000000000000000065
:104F5000BE5A00083C570008845500086000002431
:104F600088040024391F0008000000000000000031
:104F7000CC5A0008505700088455000862000024ED
:104F80009C040024391F00080000000000000000FD
:104F9000DA5A0008645700088455000864000024A9
:104FA000B0040024391F00080000000000000000C9
:104FB000E85A000878570008845500086600002465
:104FC000C4040024391F0008000000000000000095
:104FD000F65A00088C570008845500086800002421
:104FE000D8040024391F0008000000000000000061
:104FF000045B0008A0570008845500086A000024DC
:10500000EC040024391F000800000000000000002C
:10501000125B0008B4570008845500086C00002497
:1050200000050024391F00080000000000000000F7
:10503000205B0008C8570008845500086E00002453
:1050400014050024391F00080000000000000000C3
:105050003F5B000824580008D45500087200002463
:1050600018000024292100080000000000000000B2
:105070007A5A000848560008405500085600002497
:10508000C8020024551900080000000000000000BC
:1050900000000000D73C000800000000D73C0008DA
:1050A00000000000D73C000800000000D73C0008CA
:1050B00000000000D73C000800000000D73C0008BA
:1050C0004A5A0008950D0008485A0008950D000836
:1050D000465A0008950D0008445A0008950D00082E
:1050E000425A0008950D000800000000D73C000857
:1050F00000000000D73C000800000000D73C00087A
:1051000000000000D73C000800000000D73C000869
:1051100000000000D73C000800000000D73C000859
:1051200000000000D73C000870500008211400085F
:1051300000000000D73C000870500008BB40000889
:1051400000000000D73C0008405A0008950D0008F8
:1051500000000000D73C000800000000D73C000819
:1051600000000000D73C000800000000D73C000809
:1051700000000000D73C000800000000D73C0008F9
:1051800000000000D73C000800000000D73C0008E9
:1051900000000000D73C000800000000D73C0008D9
:1051A00000000000D73C000800000000D73C0008C9
:1051B00000000000D73C000800000000D73C0008B9
:1051C00000000000D73C000800000000D73C0008A9
:1051D0003E5A0008950D000800000000D73C00086A
:1051E00000000000D73C000800000000D73C000889
:1051F00000000000D73C000800000000D73C000879
:1052000000000000D73C000800000000D73C000868
:1052100000000000D73C000800000000D73C000858
:1052200000000000D73C000800000000D73C000848
:1052300000000000D73C000800000000D73C000838
:1052400000000000D73C000800000000D73C000828
:1052500000000000D73C000800000000D73C000818
:1052600000000000D73C000800000000D73C000808
:1052700000000000D73C000800000000D73C0008F8
:1052800000000000D73C000800000000D73C0008E8
:1052900000000000D73C000800000000D73C0008D8
:1052A00000000000D73C000800000000D73C0008C8
:1052B00000000000D73C000800000000D73C0008B8
:1052C00000000000D73C000800000000D73C0008A8
:1052D00000000000D73C000800000000D73C000898
:1052E00000000000D73C000800000000D73C000888
:1052F00000000000D73C000800000000D73C000878
:1053000000000000D73C000800000000D73C000867
:1053100000000000D73C000800000000D73C000857
:1053200000000000D73C000800000000D73C000847
:1053300000000000D73C000800000000D73C000837
:1053400000000000D73C000800000000D73C000827
:1053500000000000D73C000800000000D73C000817
:1053600000000000D73C000800000000D73C000807
:1053700000000000D73C000800000000D73C0008F7
:1053800000000000D73C000800000000D73C0008E7
:1053900000000000D73C000800000000D73C0008D7
:1053A00000000000D73C000800000000D73C0008C7
:1053B00000000000D73C000800000000D73C0008B7
:1053C00000000000D73C000800000000D73C0008A7
:1053D00000000000D73C000800000000D73C000897
:1053E00000000000D73C000800000000D73C000887
:1053F00000000000D73C000800000000D73C000877
:1054000000000000D73C000800000000D73C000866
:1054100000000000D73C000800000000D73C000856
:1054200000000000D73C000800000000D73C000846
:1054300000000000D73C000800000000D73C000836
:1054400000000000D73C000800000000D73C000826
:1054500000000000D73C000800000000D73C000816
:1054600000000000D73C000800000000D73C000806
:1054700000000000D73C000800000000D73C0008F6
:1054800000000000D73C000800000000D73C0008E6
:1054900000000000D73C000800000000D73C0008D6
:1054A00000000000D73C000800000000D73C0008C6
:1054B00000000000D73C000800000000D73C0008B6
:1054C00000000000D73C000800000000D73C0008A6
:1054D00000000000D73C000800000000D73C000896
:1054E00000000000D73C000800000000D73C000886
:1054F00000000000D73C000800000000D73C000876
:1055000000000000D73C000800000000D73C000865
:1055100000000000D73C000800000000D73C000855
:1055200000000000D73C000800000000D73C000845
:1055300000000000D73C000800000000D73C000835
:105540002B3F0008333F00081743000813400008B2
:10555000BD13000891150008794100085342000866
:105560000F410008D3420008391A00086B410008B7
:1055700001000000020002000100800000000001A4
:0455800080000002A5
:10558400614700082D460008394600084B460008CC
:105594005546000861460008891E00086F46000849
:0455A4000000000003
:1055A800BB480008DD480008F9480008174900080A
:1055B8004B4500088F45000800000000E11A00086C
:0C55C8000000000000000000DB450008AF
:1055D4001F4A0008E949000857490008A9220008A1
:0455E400414A000830
:1055E80005000000F055000800000008015A0008F6
:1055F8002800020600000024075A000824000B11A6
:105608000000F01F0C5A00082400041100000430A8
:10561800135A00081A00081100000430205A000824
:105628000E0004012E5A000800000090000000102F
:1056380000000002000000240000000000000B062B
:10564800000000000000000040420F0048E8010090
:1056580000000000EC560008BC56000800001C00C2
:10566800080003000300000003000300000000001E
:105678007000B000880160026002780250030000E8
:105688008C56000800A0004000AC004000AC004070
:1056980025450008CC56000802000000AC5600085A
:1056A80000000000EC000000000100000C000000F9
:1056B8005000DC1034040024540300241403002494
:1056C800031C0800D456000801000000DC5600083E
:1056D8000200000009060000000000002906000082
:1056E80000000000A3440008B1440008BD440008BD
:1056F800E144000807450008FFFF000000280258A1
:105708000A000000E000000000040000FFFF0000A5
:105718000024025809000000E00000000002000018
:10572800FFFF00000020025808000000E000000011
:1057380000010000FFFF0000001C025807000000E5
:10574800E000000080000000FFFF00000018025881
:1057580006000000E000000040000000FFFF00001D
:105768000014025805000000E000000020000000BE
:10577800FFFF00000010025804000000E0000000D5
:1057880010000000FFFF0000000C0258030000009A
:10579800E000000008000000FFFF000000080258B9
:1057A80002000000E000000004000000FFFF00000D
:1057B8000004025801000000E000000002000000A0
:1057C800FFFF00000000025800000000E000000099
:1057D800010000003050000810500008F04F000889
:1057E800D04F0008B04F0008904F0008704F0008D5
:1057F800504F0008304F0008104F0008F04E0008C6
:105808000000000000000000000000000000000090
:10581800000000000000000000440258004800405A
:10582800B04E00081212000048580008010000009D
:1058380000000000000000000000000050580008B0
:10584800E8000000000004005858000801000000AB
:10585800605800080200000007070000000200006E
:105868002707000000000000E84D0008E84D000888
:10587800784E0008804E0008904E0008904E0008B0
:10588800001000000030657874656E64656400730C
:1058980074616E646172640043414E206465766988
:1058A8006365206E6F742072656164790045727259
:1058B8006F72207374617274696E672043414E2061
:1058C800636F6E74726F6C6C6572202865727220DB
:1058D80025642900627574746F6E20646576696347
:1058E80065206E6F742072656164790A006661696B
:1058F8006C656420746F20636F6E66696775726586
:1059080020627574746F6E204750494F2028657265
:1059180072202564290A006661696C656420746FC9
:1059280020636F6E66696775726520627574746F3F
:105938006E20696E74657272757074202865727253
:10594800202564290A00626162626C696E67206FB3
:105958006E202573207769746820257320282564B4
:105968002D626974292043414E204944203078250E
:10597800302A782C205254522025642C2043414E42
:105988002046442025640A00557365720061626FE1
:105998007274206279207072657373696E6720254E
:1059A8007320627574746F6E0A006661696C656451
:1059B80020746F20656E71756575652043414E20B2
:1059C8006672616D652028657272202564290A0057
:1059D800627574746F6E2070726573732064657479
:1059E80065637465642C20626162626C696E67200D
:1059F80073746F707065640A00464C4153480053D5
:105A080052414D0053595354454D005352414D5F37
:105A18004554485F425546005352414D5F455448EE
:105A28005F44455343006D656D6F7279403930307E
:105A38003030303030000A06050504010301020148
:105A480001010001696E746572727570742D636F5F
:105A58006E74726F6C6C657240353830303030302F
:105A680030000001020304050607080C1014182072
:105A7800304063616E403430303061303030007215
:105A88006363403538303234343030006770696FC2
:105A9800403538303232383030006770696F403501
:105AA80038303232343030006770696F4035383002
:105AB8003232303030006770696F403538303231FB
:105AC800433030006770696F4035383032313830D4
:105AD80030006770696F403538303231343030000B
:105AE8006770696F40353830323130303000677058
:105AF800696F403538303230433030006770696F35
:105B0800403538303230383030006770696F403592
:105B180038303230343030006770696F4035383093
:105B280032303030300072657365742D636F6E7477
:105B3800726F6C6C65720073657269616C403430A9
:105B4800303034383030006D61696E002A2A2A20DE
:105B5800426F6F74696E67205A6570687972204F5A
:105B680053206275696C642076342E312E302D34C2
:105B78003034312D67366565353565343231313726
:105B880061202A2A2A0A00286E756C6C29002A6668
:085B98006C6F61742A0000002B
:105BA000A33C00082505000800000000273D000870
:105BB00000000000000000000000000020000024A1
:105BC00000C20100000103000090D0032C0000245B
:105BD0002C000024FF00FF00FF00FF00FF00FF007B
:105BE000FF00FF00FF00FF00FF00FF00FF00FF00BD
:045BF000FF00FF00B3
:105BF40000000000000000000000000000000000A1
:105C04000000000000000000000000000000000090
:045C140015E015E0A2
:0400000508000841A6
:00000001FF
